:020000040800F2
:1000000000280020211200085D0E0008630E000881
:10001000690E00086F0E0008750E00080000000051
:100020000000000000000000000000007B0E00083F
:10003000870E000800000000930E00089F0E0008C5
:1000400069120008691200086912000869120008A4
:100050006912000869120008691200086912000894
:100060006912000869120008691200086912000884
:100070006912000869120008691200086912000874
:100080006912000869120008691200086912000864
:100090006912000869120008691200086912000854
:1000A0006912000869120008691200086912000844
:1000B000AD0E000869120008000000006912000877
:1000C000691200080000000000000000691200082A
:1000D000000000006912000869120008000000001A
:1000E0006912000869120008691200080000000087
:1000F0000000000000000000000000000000000000
:0C01000000000000000000005FF808F1A3
:10010C0010B5054C237833B9044B13B10448AFF345
:10011C0000800123237010BD20000020000000008F
:10012C009828000808B5034B1BB103490348AFF3EB
:10013C00008008BD00000000240000209828000862
:10014C0080B483B000AF00237B6011E00D4A7B6864
:10015C00134401221A700C4A7B68134401221A7052
:10016C000A4A7B68134401221A707B6801337B6056
:10017C007B68022BEADD00BF00BF0C37BD4680BC9C
:10018C00704700BF40000020440000203C000020CD
:10019C0080B582B000AF00237B602DE01A4A7B68EB
:1001AC0013441978194A7B6813440A461A70184A82
:1001BC007B6832F813301946164801F03BFB0346B6
:1001CC001946114A7B6813440A461A700E4A7B681A
:1001DC0013441A780D497B680B441B789A4208D15A
:1001EC00094A7B68134419780B4A7B6813440A4606
:1001FC001A707B6801337B607B68022BCEDD00BFFD
:10020C0000BF0837BD4680BD4000002044000020E0
:10021C0000000020000C01403C00002080B483B0A2
:10022C0000AF0346FB71FB79022B01D9002307E0D9
:10023C00FB79064AD35C002B01D1012300E000239B
:10024C0018460C37BD4680BC704700BF3C000020F0
:10025C0080B500AF01224FF400710B4801F001FB97
:10026C0001224FF48061084801F0FBFA01224FF49F
:10027C000061054801F0F5FA01224FF48051024863
:10028C0001F0EFFA00BF80BD000C014080B483B0D8
:10029C0000AF03460A46FB711346BB71FB79214A3A
:1002AC00A2FB0323DB08DAB21E4BA3FB0213D90813
:1002BC000B469B000B445B00D31ADAB21A4B1A7034
:1002CC00FA79184BA3FB0213D9080B469B000B447D
:1002DC005B00D31ADAB2144B5A70BB79114AA2FBE9
:1002EC000323DB08DAB20F4BA3FB0213D9080B462E
:1002FC009B000B445B00D31ADAB20B4B9A70BA79A1
:10030C00084BA3FB0213D9080B469B000B445B0064
:10031C00D31ADAB2044BDA7000BF0C37BD4680BC7E
:10032C00704700BFCDCCCCCC4800002080B483B04B
:10033C0000AF0346FB71FB79114AA2FB0323DB08D8
:10034C00DAB20F4BA3FB0213D9080B469B000B44EC
:10035C005B00D31ADAB20B4B1A70FA79084BA3FB79
:10036C000213D9080B469B000B445B00D31ADAB27C
:10037C00044B5A7000BF0C37BD4680BC704700BFA1
:10038C00CDCCCCCC4800002080B483B000AF034669
:10039C00FB71FB79114AA2FB0323DB08DAB20F4B8A
:1003AC00A3FB0213D9080B469B000B445B00D31A2A
:1003BC00DAB20B4B9A70FA79084BA3FB0213D908EB
:1003CC000B469B000B445B00D31ADAB2044BDA7079
:1003DC0000BF0C37BD4680BC704700BFCDCCCCCC29
:1003EC004800002080B582B000AF0346FB71FB795A
:1003FC00032B39D8FFF72CFFFB791D4AD35C194628
:10040C00FB791C4A515C1C4AD154FB79184600F00C
:10041C0037F8FB79032B28D801A252F823F000BF40
:10042C003D0400084B040008590400086704000848
:10043C0000224FF40071114801F013FA15E000226C
:10044C004FF480610D4801F00CFA0EE000224FF4DD
:10045C0000610A4801F005FA07E000224FF48051D0
:10046C00064801F0FEF900E000BF0837BD4680BD2C
:10047C0048000020080000204C000020000C014027
:10048C0080B582B000AF0346FB71FB79032B75D8A6
:10049C00FB793C4AD35C03F00103002B0CBF012316
:1004AC000023DBB21A460221374801F0DAF9FB7956
:1004BC00344AD35C5B08DBB203F00103002B0CBFA6
:1004CC0001230023DBB21A4604212F4801F0C9F99D
:1004DC00FB792C4AD35C9B08DBB203F00103002BA5
:1004EC000CBF01230023DBB21A460821264801F079
:1004FC00B8F9FB79234AD35CDB08DBB203F00103C8
:10050C00002B0CBF01230023DBB21A4610211E481E
:10051C0001F0A7F9FB791B4AD35C1B09DBB203F092
:10052C000103002B0CBF01230023DBB21A46202150
:10053C00154801F096F9FB79124AD35C5B09DBB2E2
:10054C0003F00103002B0CBF01230023DBB21A467E
:10055C0040210D4801F085F9FB790A4AD35C9B09CF
:10056C00DBB203F00103002B0CBF01230023DBB231
:10057C001A468021044801F074F900E000BF0837E6
:10058C00BD4680BD4C0000200008014080B500AF86
:10059C0000F066FE00F028F800F0AEF800F060F80D
:1005AC00104801F0BBFDFFF7CBFD0021052000F04A
:1005BC00EBFC0121022000F0E7FC0221032000F0FB
:1005CC00E3FC00F0A3FC4FF47A7000F055FBFA202A
:1005DC0000F08AFB4FF47A7000F06AFB00F0FEF832
:1005EC00FCE700BF7800002080B590B000AF07F1A9
:1005FC00180328220021184602F040F93B1D002266
:10060C001A605A609A60DA601A610223BB61012396
:10061C00BB621023FB6200237B6307F118031846AF
:10062C0001F050F90346002B01D000F0D1F80F2354
:10063C007B600023BB600023FB6000233B61002335
:10064C007B613B1D0021184601F0BCFB0346002BCF
:10065C0001D000F0BDF800BF4037BD4680BD0000A2
:10066C0080B586B000AF07F1080300221A605A600B
:10067C009A60DA603B4600221A605A601D4B4FF0BC
:10068C0080421A601B4B41F63F725A60194B002294
:10069C009A60184B0922DA60164B00221A61154B2E
:1006AC0000229A61134801F0E9FC0346002B01D0AB
:1006BC0000F08EF84FF48053BB6007F10803194625
:1006CC000C4801F067FE0346002B01D000F080F8C7
:1006DC0000233B6000237B603B461946054802F033
:1006EC003FF80346002B01D000F072F800BF18371A
:1006FC00BD4680BD7800002080B586B000AF07F104
:10070C00080300221A605A609A60DA60274B9B69D2
:10071C00264A43F004039361244B9B6903F00403C2
:10072C007B607B68214B9B69204A43F008039361F3
:10073C001E4B9B6903F008033B603B680022FE21C3
:10074C001B4801F08EF8002241F6F871194801F0AF
:10075C0088F8FE23BB600123FB6000233B6102236E
:10076C007B6107F108031946114800F0E9FE0723E5
:10077C00BB600023FB6001233B6107F108031946B2
:10078C000C4800F0DDFE41F6F873BB600123FB6002
:10079C0000233B6102237B6107F1080319460548DE
:1007AC0000F0CEFE00BF1837BD4680BD00100240E1
:1007BC0000080140000C014080B582B000AF7860A9
:1007CC00FFF7E6FC00F0ACFA00BF0837BD4680BD71
:1007DC0080B400AF72B600BFFEE7000080B500AF7A
:1007EC00AB4B1B78032B00F2218201A252F823F0B1
:1007FC000D080008A3080008C30900081D0B000819
:10080C00A44B1B68002B14D0A34B1B68DBB21846FF
:10081C00FFF7E8FDA04B1B6801339F4A13609E4B0A
:10082C001B68042B02D19C4B00221A60FA2000F0AA
:10083C003FFA0020FFF7F2FC0346012B13D1974B34
:10084C001B78002B12D1954B01221A70904B012270
:10085C001A70934B00221A7000F032FB4FF47A702E
:10086C0000F00AFA02E08D4B00221A708D4B1B68C7
:10087C00012B40F0DF818C4B1B68002B04D100F066
:10088C001FFB894B01221A6000F0BCFC4FF47A70FC
:10089C0000F0F2F9CEE1824B1B7802211846FFF7EB
:1008AC00F5FC7C4B1B68002B14D07B4B1B68DBB21C
:1008BC001846FFF797FD784B1B680133764A136097
:1008CC00754B1B68042B02D1734B00221A60FA2063
:1008DC0000F0EEF9754B1B68002B0AD00821744808
:1008EC0000F0D7FF4021724800F0D3FFFA2000F04F
:1008FC00FBF90020FFF792FC0346002B13D0674B4B
:10090C001B78002B12D1654B01221A70604B02220E
:10091C001A70684B00221A7000F0D2FA4FF47A70F9
:10092C0000F0AAF902E05D4B00221A700120FFF7DB
:10093C0075FC0346002B1AD05F4B1B78002B19D18A
:10094C005D4B01221A70564B1B785A1C5B4B83FB78
:10095C00021313449911D317C91A0B465B000B44AD
:10096C0059010B44D11ACAB24D4B1A7002E0524BCA
:10097C0000221A700220FFF751FC0346002B0DD009
:10098C004F4B1B78002B0CD14D4B01221A70444B52
:10099C001B780021184600F0F7FA02E0484B0022C1
:1009AC001A70404B1B68012B40F046814FF47A7053
:1009BC0000F062F940E13F4B1B7803211846FFF72A
:1009CC0065FC344B1B68002B14D0334B1B68DBB21B
:1009DC001846FFF707FD304B1B6801332E4A136096
:1009EC002D4B1B68042B02D12B4B00221A60FA20D2
:1009FC0000F05EF92D4B1B68002B0BD020212C48EE
:100A0C0000F047FF4FF48071294800F042FFFA20B4
:100A1C0000F06AF90020FFF701FC0346002B13D00D
:100A2C001E4B1B78002B12D11C4B01221A70184B39
:100A3C0003221A70234B00221A7000F041FA4FF473
:100A4C007A7000F019F902E0144B00221A700120A0
:100A5C00FFF7E4FB0346002B36D0174B1B78002B1B
:100A6C0035D1154B01221A70124B1B785A1C134BA3
:100A7C0083FB021313449911D317C91A0B465B005D
:100A8C000B4459010B44D11ACAB20A4B1A701EE01E
:100A9C0050000020640000205C0000205400002066
:100AAC005100002060000020580000206800002049
:100ABC00000C0140520000205500002003B57EA51B
:100ACC0056000020530000205F4B00221A700220B9
:100ADC00FFF7A4FB0346002B0DD05C4B1B78002BBF
:100AEC000CD15A4B01221A70594B1B780121184614
:100AFC0000F04AFA02E0554B00221A70554B1B6865
:100B0C00012B40F09B804FF47A7000F0B5F895E023
:100B1C00514B1B7804211846FFF7B8FB4F4B1B6851
:100B2C00002B14D04E4B1B68DBB21846FFF75AFC57
:100B3C004B4B1B6801334A4A1360494B1B68042B0F
:100B4C0002D1474B00221A60FA2000F0B1F8454B55
:100B5C001B68002B0AD01021434800F09AFE80211C
:100B6C00414800F096FEFA2000F0BEF80020FFF796
:100B7C0055FB0346002B12D03C4B1B78002B11D19C
:100B8C003A4B01221A703A4B00221A7000F0BEF94F
:100B9C0000F096F94FF47A7000F06EF802E0334BE7
:100BAC0000221A700120FFF739FB0346002B1AD0E4
:100BBC00254B1B78002B19D1234B01221A70264B85
:100BCC001B785A1C2B4B83FB021313449911D3171C
:100BDC00C91A0B465B000B4459010B44D11ACAB21B
:100BEC001D4B1A7002E0184B00221A700220FFF7FE
:100BFC0015FB0346002B0DD0144B1B78002B0CD18E
:100C0C00124B01221A70144B1B780221184600F06B
:100C1C00BBF902E00D4B00221A700E4B1B68012B26
:100C2C000ED14FF47A7000F027F809E0104B002237
:100C3C001A7006E000BF04E000BF02E000BF00E055
:100C4C0000BF00BF80BD00BF550000205600002033
:100C5C00520000206000002053000020640000209F
:100C6C005C00002068000020000C014054000020B3
:100C7C005000002003B57EA580B483B000AF78602F
:100C8C007B68084A82FB03129210DB17D31A064AC0
:100C9C001360064B00221A6000BF0C37BD4680BCA7
:100CAC00704700BF67666666C400002060000020C5
:100CBC0080B483B000AF78607B68084A82FB031273
:100CCC009210DB17D31A064A1360064B00221A60E7
:100CDC0000BF0C37BD4680BC704700BF67666666B8
:100CEC00C00000206400002080B483B000AF7860A6
:100CFC007B68084A82FB03129210DB17D31A064A50
:100D0C001360064B00221A6000BF0C37BD4680BC36
:100D1C00704700BF67666666C80000206800002048
:100D2C0080B400AF194B1B68002B0BDD174B1B68F5
:100D3C00013B164A1360154B1B68002B02D1144B58
:100D4C0001221A60134B1B68002B0BDD114B1B6827
:100D5C00013B104A13600F4B1B68002B02D10E4B4A
:100D6C0001221A600D4B1B68002B0BDD0B4B1B6813
:100D7C00013B0A4A1360094B1B68002B02D1084B3C
:100D8C0001221A6000BFBD4680BC7047C400002021
:100D9C0060000020C000002064000020C80000207B
:100DAC006800002080B485B000AF154B9B69144AD5
:100DBC0043F001039361124B9B6903F00103BB6089
:100DCC00BB680F4BDB690E4A43F08053D3610C4B6D
:100DDC00DB6903F080537B607B680A4B5B68FB60CC
:100DEC00FB6823F0E063FB60FB6843F08063FB600F
:100DFC00044AFB68536000BF1437BD4680BC704783
:100E0C00001002400000014080B584B000AF786053
:100E1C007B681B68B3F1804F13D10C4BDB690B4A19
:100E2C0043F00103D361094BDB6903F00103FB6061
:100E3C00FB68002200211C2000F04BFB1C2000F062
:100E4C0064FB00BF1037BD4680BD00BF00100240E0
:100E5C0080B400AFFEE780B400AFFEE780B400AF13
:100E6C00FEE780B400AFFEE780B400AFFEE780B4CD
:100E7C0000AF00BFBD4680BC704780B400AF00BF60
:100E8C00BD4680BC704780B400AF00BFBD4680BC7F
:100E9C00704780B500AF00F029FA00BF80BD00009C
:100EAC0080B500AF024801F085F900BF80BD00BFDE
:100EBC007800002080B400AF00BFBD4680BC7047F6
:100ECC0080B500AF012208210F4800F0CAFC0122B6
:100EDC0040210D4800F0C5FC012220210A4800F0F9
:100EEC00C0FC01224FF48071074800F0BAFC0122CB
:100EFC001021054800F0B5FC01228021024800F0C9
:100F0C00B0FC00BF80BD00BF000C014080B400AF3E
:100F1C00134B1A78134B1A70114B5A78124B1A70D8
:100F2C000F4B9A78114B1A700D4B1A78104B1A7094
:100F3C000B4B5A780F4B1A70094B9A780E4B1A7050
:100F4C00074B1A780D4B1A70054B5A780C4B1A70CC
:100F5C00034B9A780B4B1A7000BFBD4680BC704790
:100F6C006C0000206F000020700000207100002039
:100F7C007200002073000020740000207500002017
:100F8C00760000207700002080B483B000AF0346C9
:100F9C000A46FB711346BB71BB79022B16D0022B90
:100FAC0020DC002B02D0012B04D01BE0104AFB7973
:100FBC00137018E00E4AFB7953700D4B5A780C4B9A
:100FCC009B781344DAB20A4B1A700CE0084AFB798E
:100FDC009370074B5A78064B9B781344DAB2044B48
:100FEC001A7000E000BF00BF0C37BD4680BC7047D4
:100FFC006C00002080B500AF364B1B78002B1AD04C
:10100C00344B1B781846FFF7BFF9012208213248F0
:10101C0000F027FC012220212F4800F022FC0022A6
:10102C0010212D4800F01DFC2A4B1B78013BDAB235
:10103C00284B1A703CE0294B1B78002B1AD0274BFD
:10104C001B781846FFF7A0F901220821224800F06E
:10105C0008FC00222021204800F003FC0122102172
:10106C001D4800F0FEFB1D4B1B78013BDAB21B4BFD
:10107C001A701DE01A4B1B78002B19D0184B1B78DB
:10108C001846FFF781F900220821134800F0E9FB0C
:10109C0001222021104800F0E4FB012210210E480F
:1010AC0000F0DFFB0E4B1B78013BDAB20C4B1A70D5
:1010BC000B4B1B78002B0BD10A4B1A78084B1A7070
:1010CC00094B1A78054B1A70084B1A78014B1A7099
:1010DC0000BF80BD74000020000C01407300002094
:1010EC0072000020750000207600002077000020A0
:1010FC0080B500AF3C4B1B78002B1BD03A4B1B78B8
:10110C001846FFF713F900224021384800F0A9FBDC
:10111C0001224FF48071354800F0A3FB012280219D
:10112C00324800F09EFB304B1B78013BDAB22E4B61
:10113C001A703EE02E4B1B78002B1BD02C4B1B78CF
:10114C001846FFF7F3F801224021284800F089FBEC
:10115C0001224FF48071254800F083FB002280218E
:10116C00224800F07EFB224B1B78013BDAB2204B6D
:10117C001A701EE01F4B1B78002B1AD01D4B1B78CE
:10118C001846FFF7D3F801224021184800F069FBFC
:10119C0000224FF48071154800F063FB012280217E
:1011AC00124800F05EFB134B1B78013BDAB2114B7B
:1011BC001A700D4B1B78002B13D10D4B1B78002B89
:1011CC000FD10C4B1B78002B0BD10B4B1A78064B09
:1011DC001A700A4B1A78064B1A70094B1A78054B81
:1011EC001A7000BF80BD00BF6F000020000C0140D2
:1011FC007100002070000020750000207700002096
:10120C007600002080B500AFFFF772FFFFF7F2FE0B
:10121C0000BF80BDFFF74EFE0B480C490C4A002363
:10122C0002E0D458C4500433C4188C42F9D3094A90
:10123C00094C002301E013600432A242FBD301F0FD
:10124C00F9FAFFF7A3F970470000002020000020F6
:10125C00DC28000820000020D0000020FEE7000061
:10126C0080B500AF084B1B68074A43F010031360AE
:10127C00032000F023F90F2000F008F8FFF792FD8F
:10128C000023184680BD00BF0020024080B582B00C
:10129C0000AF7860124B1A68124B1B7819464FF44A
:1012AC007A73B3FBF1F3B2FBF3F3184600F03BF99E
:1012BC000346002B01D001230EE07B680F2B0AD8CC
:1012CC00002279684FF0FF3000F003F9064A7B6882
:1012DC001360002300E0012318460837BD4680BD8B
:1012EC00140000201C0000201800002080B400AF67
:1012FC00054B1B781A46054B1B681344034A1360B5
:10130C0000BFBD4680BC70471C000020CC000020F4
:10131C0080B400AF024B1B681846BD4680BC7047BA
:10132C00CC00002080B485B000AF78607B6803F0FF
:10133C000703FB600C4BDB68BB60BA684FF6FF031E
:10134C001340BB60FB681A02BB68134343F0BF63D6
:10135C0043F40033BB60044ABB68D36000BF14374E
:10136C00BD4680BC704700BF00ED00E080B400AF0C
:10137C00044BDB681B0A03F007031846BD4680BC10
:10138C00704700BF00ED00E080B483B000AF0346AF
:10139C00FB7197F90730002B0BDBFB7903F01F0275
:1013AC00064997F907305B09012000FA02F241F86F
:1013BC00232000BF0C37BD4680BC704700E100E025
:1013CC0080B483B000AF03463960FB7197F90730E6
:1013DC00002B0ADB3B68DAB20C4997F90730120193
:1013EC00D2B20B4483F800230AE03B68DAB2084916
:1013FC00FB7903F00F03043B1201D2B20B441A76B3
:10140C0000BF0C37BD4680BC704700BF00E100E058
:10141C0000ED00E080B489B000AFF860B9607A608C
:10142C00FB6803F00703FB61FB69C3F10703042BA3
:10143C0028BF0423BB61FB690433062B02D9FB696B
:10144C00033B00E000237B614FF0FF32BB6902FAE3
:10145C0003F3DA43BB681A407B699A404FF0FF31C3
:10146C007B6901FA03F3D9437B680B40134318469D
:10147C002437BD4680BC704780B582B000AF786021
:10148C007B68013BB3F1807F01D301230FE00A4A53
:10149C007B68013B53600F214FF0FF30FFF790FF4B
:1014AC00054B00229A60044B07221A600023184651
:1014BC000837BD4680BD00BF10E000E080B582B0AB
:1014CC0000AF78607868FFF72DFF00BF0837BD4686
:1014DC0080BD80B586B000AF0346B9607A60FB73FF
:1014EC0000237B61FFF742FF78617A68B9687869FD
:1014FC00FFF790FF024697F90F3011461846FFF799
:10150C005FFF00BF1837BD4680BD80B582B000AF0D
:10151C000346FB7197F907301846FFF735FF00BFFC
:10152C000837BD4680BD80B582B000AF7860786862
:10153C00FFF7A2FF034618460837BD4680BD0000E2
:10154C0080B48BB000AF7860396000237B620023DD
:10155C003B6248E101227B6A02FA03F3FB613B68C0
:10156C001B68FA691340BB61BA69FB699A4240F087
:10157C0037813B685B68A34A93425ED0A14A934291
:10158C0075D8A14A934258D09F4A93426FD89F4A2C
:10159C00934252D09D4A934269D89D4A93424CD073
:1015AC009B4A934263D89B4A934246D0994A9342B2
:1015BC005DD8122B2AD8122B59D801A252F823F03D
:1015CC004716000821160008331600087516000887
:1015DC007B1600087B1600087B1600087B1600089B
:1015EC007B1600087B1600087B1600087B1600088B
:1015FC007B1600087B1600087B1600087B1600087B
:10160C007B160008291600083D160008824A9342F2
:10161C0013D02CE03B68DB683B6229E03B68DB685D
:10162C0004333B6224E03B68DB6808333B621FE019
:10163C003B68DB680C333B621AE03B689B68002B11
:10164C0002D104233B6213E03B689B68012B05D15C
:10165C0008233B627B68FA691A6109E008233B6244
:10166C007B68FA695A6103E000233B6200E000BF2B
:10167C00BB69FF2B01D87B6801E07B6804337B617D
:10168C00BB69FF2B02D87B6A9B0002E07B6A083B9C
:10169C009B003B617B691A680F213B6901FA03F3DC
:1016AC00DB431A40396A3B6901FA03F31A437B693D
:1016BC001A603B685B6803F08053002B00F090804D
:1016CC00564B9B69554A43F001039361534B9B69FD
:1016DC0003F00103BB60BB68514A7B6A9B08023371
:1016EC0052F82330FB607B6A03F003039B000F224C
:1016FC0002FA03F3DB43FA681340FB607B68494A48
:10170C0093420DD07B68484A934207D07B68474A86
:10171C00934201D1022304E0032302E0012300E001
:10172C0000237A6A02F0030292009340FA68134392
:10173C00FB603B497B6A9B080233FA6841F8232023
:10174C003B685B6803F48013002B06D0384B9A6817
:10175C003749BB6913438B6006E0354B9A68BB690C
:10176C00DB43334913408B603B685B6803F4001325
:10177C00002B06D02E4BDA682D49BB691343CB6086
:10178C0006E02B4BDA68BB69DB4329491340CB607D
:10179C003B685B6803F40033002B06D0244B5A687B
:1017AC002349BB6913434B6006E0214B5A68BB6964
:1017BC00DB431F4913404B603B685B6803F4803389
:1017CC00002B06D01A4B1A681949BB6913430B60DE
:1017DC0006E0174B1A68BB69DB43154913400B60D5
:1017EC007B6A01337B623B681A687B6A22FA03F3DB
:1017FC00002B7FF4AFAE00BF00BF2C37BD4680BCC2
:10180C00704700BF000032100000311000002210A1
:10181C0000002110000012100000111000100240F6
:10182C000000014000080140000C01400010014084
:10183C000004014080B485B000AF78600B467B801B
:10184C007B689A687B881340002B02D00123FB73C2
:10185C0001E00023FB73FB7B18461437BD4680BCAC
:10186C00704780B483B000AF78600B467B80134622
:10187C007B707B78002B03D07A887B681A6103E03D
:10188C007B881A047B681A6100BF0C37BD4680BC8C
:10189C00704780B485B000AF78600B467B807B6866
:1018AC00DB68FB607A88FB6813401A04FB68D94339
:1018BC007B880B401A437B681A6100BF1437BD4606
:1018CC0080BC704780B586B000AF78607B68002B19
:1018DC0001D101236CE27B681B6803F00103002B30
:1018EC0000F08780924B5B6803F00C03042B0CD048
:1018FC008F4B5B6803F00C03082B12D18C4B5B688D
:10190C0003F48033B3F5803F0BD1894B1B6803F490
:10191C000033002B6CD07B685B68002B68D10123F3
:10192C0046E27B685B68B3F5803F06D1804B1B6851
:10193C007F4A43F4803313602EE07B685B68002B96
:10194C000CD17B4B1B687A4A23F480331360784BA1
:10195C001B68774A23F4802313601DE07B685B6867
:10196C00B3F5A02F0CD1724B1B68714A43F4802342
:10197C0013606F4B1B686E4A43F4803313600BE0AB
:10198C006B4B1B686A4A23F480331360684B1B68EB
:10199C00674A23F4802313607B685B68002B13D0A9
:1019AC00FFF7B6FC386108E0FFF7B2FC02463B6972
:1019BC00D31A642B01D90323FAE15D4B1B6803F4A2
:1019CC000033002BF0D014E0FFF7A2FC386108E0E4
:1019DC00FFF79EFC02463B69D31A642B01D9032303
:1019EC00E6E1534B1B6803F40033002BF0D100E00D
:1019FC0000BF7B681B6803F00203002B63D04C4BC9
:101A0C005B6803F00C03002B0BD0494B5B6803F0B5
:101A1C000C03082B1CD1464B5B6803F48033002B62
:101A2C0016D1434B1B6803F00203002B05D07B68D7
:101A3C001B69012B01D00123BAE13D4B1B6823F03C
:101A4C00F8027B685B69DB00394913430B603AE0B1
:101A5C007B681B69002B20D0364B01221A60FFF7E4
:101A6C0057FC386108E0FFF753FC02463B69D31A78
:101A7C00022B01D903239BE12D4B1B6803F00203BE
:101A8C00002BF0D02A4B1B6823F0F8027B685B69B3
:101A9C00DB00274913430B6015E0264B00221A602C
:101AAC00FFF736FC386108E0FFF732FC02463B6971
:101ABC00D31A022B01D903237AE11D4B1B6803F0C7
:101ACC000203002BF0D17B681B6803F00803002B8A
:101ADC003AD07B689B69002B19D0174B01221A60F6
:101AEC00FFF716FC386108E0FFF712FC02463B6971
:101AFC00D31A022B01D903235AE10D4B5B6A03F075
:101B0C000203002BF0D0012000F09AFA1CE00A4BE3
:101B1C0000221A60FFF7FCFB38610FE0FFF7F8FBBF
:101B2C0002463B69D31A022B08D9032340E100BFBC
:101B3C000010024000004242800442429E4B5B6A0D
:101B4C0003F00203002BE9D17B681B6803F004034C
:101B5C00002B00F0A6800023FB75974BDB6903F08C
:101B6C008053002B0DD1944BDB69934A43F0805387
:101B7C00D361914BDB6903F08053BB60BB680123DD
:101B8C00FB758E4B1B6803F48073002B18D18B4BA9
:101B9C001B688A4A43F480731360FFF7B9FB386102
:101BAC0008E0FFF7B5FB02463B69D31A642B01D959
:101BBC000323FDE0814B1B6803F48073002BF0D0F2
:101BCC007B68DB68012B06D17B4B1B6A7A4A43F09E
:101BDC00010313622DE07B68DB68002B0CD1764B84
:101BEC001B6A754A23F001031362734B1B6A724A1A
:101BFC0023F0040313621CE07B68DB68052B0CD11B
:101C0C006D4B1B6A6C4A43F0040313626A4B1B6AEC
:101C1C00694A43F0010313620BE0674B1B6A664A87
:101C2C0023F001031362644B1B6A634A23F0040321
:101C3C0013627B68DB68002B15D0FFF769FB3861FA
:101C4C000AE0FFF765FB02463B69D31A41F2883282
:101C5C00934201D90323ABE0574B1B6A03F00203F9
:101C6C00002BEED014E0FFF753FB38610AE0FFF7CE
:101C7C004FFB02463B69D31A41F28832934201D999
:101C8C00032395E04C4B1B6A03F00203002BEED1AF
:101C9C00FB7D012B05D1484BDB69474A23F0805370
:101CAC00D3617B68DB69002B00F08180424B5B6861
:101CBC0003F00C03082B61D07B68DB69022B46D147
:101CCC003F4B00221A60FFF723FB386108E0FFF757
:101CDC001FFB02463B69D31A022B01D9032367E091
:101CEC00354B1B6803F00073002BF0D17B681B6A2B
:101CFC00B3F5803F08D1304B5B6823F400327B682E
:101D0C009B682D4913434B602B4B5B6823F4741277
:101D1C007B68196A7B685B6A0B43274913434B60EA
:101D2C00274B01221A60FFF7F3FA386108E0FFF73E
:101D3C00EFFA02463B69D31A022B01D9032337E091
:101D4C001D4B1B6803F00073002BF0D02FE01C4BD5
:101D5C0000221A60FFF7DCFA386108E0FFF7D8FAC6
:101D6C0002463B69D31A022B01D9032320E0124B04
:101D7C001B6803F00073002BF0D118E07B68DB6963
:101D8C00012B01D1012313E00B4B5B68FB60FB685B
:101D9C0003F480327B681B6A9A4206D1FB6803F419
:101DAC0070127B685B6A9A4201D0012300E0002329
:101DBC0018461837BD4680BD001002400070004028
:101DCC006000424280B584B000AF786039607B68B7
:101DDC00002B01D10123D0E06A4B1B6803F00703F1
:101DEC003A689A4210D9674B1B6823F00702654981
:101DFC003B6813430B60634B1B6803F007033A68A3
:101E0C009A4201D00123B8E07B681B6803F00203FF
:101E1C00002B20D07B681B6803F00403002B05D03B
:101E2C00594B5B68584A43F4E06353607B681B680A
:101E3C0003F00803002B05D0534B5B68524A43F464
:101E4C0060535360504B5B6823F0F0027B689B68D7
:101E5C004D4913434B607B681B6803F00103002B57
:101E6C0040D07B685B68012B07D1474B1B6803F4A0
:101E7C000033002B15D101237FE07B685B68022BBC
:101E8C0007D1414B1B6803F00073002B09D10123D0
:101E9C0073E03D4B1B6803F00203002B01D10123BF
:101EAC006BE0394B5B6823F003027B685B68364957
:101EBC0013434B60FFF72CFAF8600AE0FFF728FA9F
:101ECC000246FB68D31A41F28832934201D90323AC
:101EDC0053E02D4B5B6803F00C027B685B689B0046
:101EEC009A42EBD1274B1B6803F007033A689A42DE
:101EFC0010D2244B1B6823F0070222493B68134382
:101F0C000B60204B1B6803F007033A689A4201D020
:101F1C00012332E07B681B6803F00403002B08D01C
:101F2C00194B5B6823F4E0627B68DB68164913434A
:101F3C004B607B681B6803F00803002B09D0124B25
:101F4C005B6823F460527B681B69DB000E4913430A
:101F5C004B6000F021F802460B4B5B681B0903F049
:101F6C000F030A49CB5C22FA03F3094A1360094BAD
:101F7C001B681846FFF78AF9002318461037BD4630
:101F8C0080BD00BF0020024000100240B0280008B5
:101F9C00140000201800002080B487B000AF00238C
:101FAC00FB600023BB6000237B6100237B6000236C
:101FBC003B611E4B5B68FB60FB6803F00C03042B5E
:101FCC0002D0082B03D027E0194B3B6127E0FB68BC
:101FDC009B0C03F00F03174AD35C7B60FB6803F484
:101FEC008033002B10D0114B5B685B0C03F00103AA
:101FFC00114AD35CBB607B680D4A02FB03F2BB68E1
:10200C00B2FBF3F37B6104E07B680C4A02FB03F345
:10201C007B617B693B6102E0054B3B6100BF3B6927
:10202C0018461C37BD4680BC704700BF00100240EC
:10203C0000127A00C0280008D028000800093D00D2
:10204C0080B485B000AF78600A4B1B680A4AA2FBCB
:10205C0003235B0A7A6802FB03F3FB6000BFFB6897
:10206C005A1EFA60002BF9D100BF00BF1437BD46D1
:10207C0080BC704714000020D34D621080B582B034
:10208C0000AF78607B68002B01D1012341E07B68B5
:10209C0093F83D30DBB2002B06D17B68002283F82D
:1020AC003C207868FEF7B0FE7B68022283F83D2066
:1020BC007B681A687B6804331946104600F056FAA0
:1020CC007B68012283F846207B68012283F83E203E
:1020DC007B68012283F83F207B68012283F8402033
:1020EC007B68012283F841207B68012283F842201F
:1020FC007B68012283F843207B68012283F844200B
:10210C007B68012283F845207B68012283F83D20FF
:10211C00002318460837BD4680BD000080B485B04A
:10212C0000AF78607B6893F83D30DBB2012B01D0B7
:10213C00012335E07B68022283F83D207B681B6815
:10214C00DA687B681B6842F00102DA607B681B6806
:10215C00164A934209D07B681B68B3F1804F04D0B8
:10216C007B681B68124A934211D17B681B689B6881
:10217C0003F00703FB60FB68062B10D07B681B6821
:10218C001A687B681B6842F001021A6007E07B68E2
:10219C001B681A687B681B6842F001021A600023F6
:1021AC0018461437BD4680BC704700BF002C014058
:1021BC000004004080B584B000AF78607B681B6879
:1021CC00DB68FB607B681B681B69BB60BB6803F04A
:1021DC000203002B20D0FB6803F00203002B1BD062
:1021EC007B681B686FF002021A617B6801221A7708
:1021FC007B681B689B6903F00303002B03D0786892
:10220C0000F098F905E0786800F08BF9786800F038
:10221C009AF97B6800221A77BB6803F00403002B41
:10222C0020D0FB6803F00403002B1BD07B681B68D9
:10223C006FF004021A617B6802221A777B681B68B4
:10224C009B6903F44073002B03D0786800F072F99B
:10225C0005E0786800F065F9786800F074F97B683F
:10226C0000221A77BB6803F00803002B20D0FB6810
:10227C0003F00803002B1BD07B681B686FF008026F
:10228C001A617B6804221A777B681B68DB6903F090
:10229C000303002B03D0786800F04CF905E0786854
:1022AC0000F03FF9786800F04EF97B6800221A774D
:1022BC00BB6803F01003002B20D0FB6803F0100365
:1022CC00002B1BD07B681B686FF010021A617B68B7
:1022DC0008221A777B681B68DB6903F44073002BB8
:1022EC0003D0786800F026F905E0786800F019F959
:1022FC00786800F028F97B6800221A77BB6803F035
:10230C000103002B0CD0FB6803F00103002B07D05A
:10231C007B681B686FF001021A617868FEF74CFA53
:10232C00BB6803F08003002B0CD0FB6803F0800328
:10233C00002B07D07B681B686FF080021A617868ED
:10234C0000F06FFABB6803F04003002B0CD0FB6865
:10235C0003F04003002B07D07B681B686FF0400232
:10236C001A61786800F0F8F8BB6803F02003002BC2
:10237C000CD0FB6803F02003002B07D07B681B6894
:10238C006FF020021A61786800F042FA00BF103733
:10239C00BD4680BD80B584B000AF78603960002345
:1023AC00FB737B6893F83C30012B01D10223B4E022
:1023BC007B68012283F83C207B68022283F83D2055
:1023CC007B681B689B68BB60BB6823F07703BB60B2
:1023DC00BB6823F47F43BB607B681B68BA689A6058
:1023EC003B681B68B3F5005F3ED0B3F5005F00F2AD
:1023FC008780B3F5805F00F08680B3F5805F7FD86F
:10240C00702B1AD0702B7BD8602B50D0602B77D8C8
:10241C00502B3CD0502B73D8402B58D0402B6FD81E
:10242C00302B64D0302B6BD8202B60D0202B67D86E
:10243C00002B5CD0102B5AD062E07B6818683B688C
:10244C0099683B685A683B68DB6800F06AF97B68FE
:10245C001B689B68BB60BB6843F07703BB607B6801
:10246C001B68BA689A604FE07B6818683B6899688B
:10247C003B685A683B68DB6800F053F97B681B6863
:10248C009A687B681B6842F480429A603CE07B68E7
:10249C0018683B6859683B68DB681A4600F0CAF854
:1024AC007B681B685021184600F021F92CE07B68F2
:1024BC0018683B6859683B68DB681A4600F0E8F816
:1024CC007B681B686021184600F011F91CE07B68E2
:1024DC0018683B6859683B68DB681A4600F0AAF834
:1024EC007B681B684021184600F001F90CE07B6802
:1024FC001A683B681B681946104600F0F8F803E0B0
:10250C000123FB7300E000BF7B68012283F83D20B0
:10251C007B68002283F83C20FB7B18461037BD46B5
:10252C0080BD80B483B000AF786000BF0C37BD466F
:10253C0080BC704780B483B000AF786000BF0C37AC
:10254C00BD4680BC704780B483B000AF786000BFDC
:10255C000C37BD4680BC704780B483B000AF786048
:10256C0000BF0C37BD4680BC7047000080B485B0FE
:10257C0000AF786039607B681B68FB607B682B4A16
:10258C00934207D07B68B3F1804F03D07B68284A15
:10259C00934208D1FB6823F07003FB603B685B68D7
:1025AC00FA681343FB607B68204A934207D07B6830
:1025BC00B3F1804F03D07B681D4A934208D1FB686E
:1025CC0023F44073FB603B68DB68FA681343FB60E1
:1025DC00FB6823F080023B685B691343FB607B68FC
:1025EC00FA681A603B689A687B68DA623B681A681A
:1025FC007B689A627B680D4A934203D13B681A69E7
:10260C007B681A637B6801225A617B681B6903F043
:10261C000103002B05D07B681B6923F001027B684A
:10262C001A6100BF1437BD4680BC7047002C0140B6
:10263C000004004080B487B000AFF860B9607A60E5
:10264C00FB681B6A7B61FB681B6A23F00102FB6859
:10265C001A62FB689B693B613B6923F0F0033B61A9
:10266C007B681B013A6913433B617B6923F00A03C6
:10267C007B617A69BB6813437B61FB683A699A6139
:10268C00FB687A691A6200BF1C37BD4680BC704774
:10269C0080B487B000AFF860B9607A60FB681B6AE1
:1026AC007B61FB681B6A23F01002FB681A62FB68F3
:1026BC009B693B613B6923F470433B617B681B0363
:1026CC003A6913433B617B6923F0A0037B61BB68D0
:1026DC001B017A6913437B61FB683A699A61FB6859
:1026EC007A691A6200BF1C37BD4680BC704780B443
:1026FC0085B000AF786039607B689B68FB60FB68D5
:10270C0023F07003FB603A68FB68134343F0070344
:10271C00FB607B68FA689A6000BF1437BD4680BCCA
:10272C00704780B487B000AFF860B9607A603B60E6
:10273C00FB689B687B617B6923F47F437B613B680F
:10274C001A027B681A43BB6813437A6913437B6193
:10275C00FB687A699A6000BF1C37BD4680BC704725
:10276C0080B485B000AF786039607B6893F83C30FA
:10277C00012B01D1022341E07B68012283F83C202C
:10278C007B68022283F83D207B681B685B68FB60DA
:10279C007B681B689B68BB60FB6823F07003FB6065
:1027AC003B681B68FA681343FB607B681B68FA681C
:1027BC005A607B681B68144A934209D07B681B687B
:1027CC00B3F1804F04D07B681B68104A93420CD144
:1027DC00BB6823F08003BB603B685B68BA6813433B
:1027EC00BB607B681B68BA689A607B68012283F8BF
:1027FC003D207B68002283F83C20002318461437C8
:10280C00BD4680BC704700BF002C01400004004056
:10281C0080B483B000AF786000BF0C37BD4680BC7D
:10282C00704780B483B000AF786000BF0C37BD46F2
:10283C0080BC704770B500260C4D0D4C641BA41069
:10284C00A64209D100F022F800260A4D0A4C641B5E
:10285C00A410A64205D170BD55F8043B984701362B
:10286C00EEE755F8043B98470136F2E7D428000808
:10287C00D4280008D4280008D828000803460244AD
:10288C00934200D1704703F8011BF9E7F8B500BF7C
:10289C00F8BC08BC9E467047F8B500BFF8BC08BC35
:0428AC009E4670478D
:1028B00000000000000000000102030406070809F0
:1028C00002030405060708090A0B0C0D0E0F101071
:0428D0000102000001
:0428D40031010008C6
:0428D8000D010008E6
:1028DC0001000200040000003F065B4F666D7D079F
:1028EC007F6700000024F4001000000001000000CD
:0400000508001221BC
:00000001FF
